{
  "_format": "hh3-artifact-1",
  "contractName": "DigitalAssetNFT",
  "sourceName": "contracts/DigitalAssetNFT.sol",
  "abi": [
    {
      "inputs": [],
      "stateMutability": "nonpayable",
      "type": "constructor"
    },
    {
      "inputs": [
        {
          "internalType": "uint256",
          "name": "numerator",
          "type": "uint256"
        },
        {
          "internalType": "uint256",
          "name": "denominator",
          "type": "uint256"
        }
      ],
      "name": "ERC2981InvalidDefaultRoyalty",
      "type": "error"
    },
    {
      "inputs": [
        {
          "internalType": "address",
          "name": "receiver",
          "type": "address"
        }
      ],
      "name": "ERC2981InvalidDefaultRoyaltyReceiver",
      "type": "error"
    },
    {
      "inputs": [
        {
          "internalType": "uint256",
          "name": "tokenId",
          "type": "uint256"
        },
        {
          "internalType": "uint256",
          "name": "numerator",
          "type": "uint256"
        },
        {
          "internalType": "uint256",
          "name": "denominator",
          "type": "uint256"
        }
      ],
      "name": "ERC2981InvalidTokenRoyalty",
      "type": "error"
    },
    {
      "inputs": [
        {
          "internalType": "uint256",
          "name": "tokenId",
          "type": "uint256"
        },
        {
          "internalType": "address",
          "name": "receiver",
          "type": "address"
        }
      ],
      "name": "ERC2981InvalidTokenRoyaltyReceiver",
      "type": "error"
    },
    {
      "inputs": [
        {
          "internalType": "address",
          "name": "sender",
          "type": "address"
        },
        {
          "internalType": "uint256",
          "name": "tokenId",
          "type": "uint256"
        },
        {
          "internalType": "address",
          "name": "owner",
          "type": "address"
        }
      ],
      "name": "ERC721IncorrectOwner",
      "type": "error"
    },
    {
      "inputs": [
        {
          "internalType": "address",
          "name": "operator",
          "type": "address"
        },
        {
          "internalType": "uint256",
          "name": "tokenId",
          "type": "uint256"
        }
      ],
      "name": "ERC721InsufficientApproval",
      "type": "error"
    },
    {
      "inputs": [
        {
          "internalType": "address",
          "name": "approver",
          "type": "address"
        }
      ],
      "name": "ERC721InvalidApprover",
      "type": "error"
    },
    {
      "inputs": [
        {
          "internalType": "address",
          "name": "operator",
          "type": "address"
        }
      ],
      "name": "ERC721InvalidOperator",
      "type": "error"
    },
    {
      "inputs": [
        {
          "internalType": "address",
          "name": "owner",
          "type": "address"
        }
      ],
      "name": "ERC721InvalidOwner",
      "type": "error"
    },
    {
      "inputs": [
        {
          "internalType": "address",
          "name": "receiver",
          "type": "address"
        }
      ],
      "name": "ERC721InvalidReceiver",
      "type": "error"
    },
    {
      "inputs": [
        {
          "internalType": "address",
          "name": "sender",
          "type": "address"
        }
      ],
      "name": "ERC721InvalidSender",
      "type": "error"
    },
    {
      "inputs": [
        {
          "internalType": "uint256",
          "name": "tokenId",
          "type": "uint256"
        }
      ],
      "name": "ERC721NonexistentToken",
      "type": "error"
    },
    {
      "inputs": [
        {
          "internalType": "address",
          "name": "owner",
          "type": "address"
        }
      ],
      "name": "OwnableInvalidOwner",
      "type": "error"
    },
    {
      "inputs": [
        {
          "internalType": "address",
          "name": "account",
          "type": "address"
        }
      ],
      "name": "OwnableUnauthorizedAccount",
      "type": "error"
    },
    {
      "anonymous": false,
      "inputs": [
        {
          "indexed": true,
          "internalType": "address",
          "name": "owner",
          "type": "address"
        },
        {
          "indexed": true,
          "internalType": "address",
          "name": "approved",
          "type": "address"
        },
        {
          "indexed": true,
          "internalType": "uint256",
          "name": "tokenId",
          "type": "uint256"
        }
      ],
      "name": "Approval",
      "type": "event"
    },
    {
      "anonymous": false,
      "inputs": [
        {
          "indexed": true,
          "internalType": "address",
          "name": "owner",
          "type": "address"
        },
        {
          "indexed": true,
          "internalType": "address",
          "name": "operator",
          "type": "address"
        },
        {
          "indexed": false,
          "internalType": "bool",
          "name": "approved",
          "type": "bool"
        }
      ],
      "name": "ApprovalForAll",
      "type": "event"
    },
    {
      "anonymous": false,
      "inputs": [
        {
          "indexed": true,
          "internalType": "uint256",
          "name": "tokenId",
          "type": "uint256"
        },
        {
          "indexed": false,
          "internalType": "uint256",
          "name": "price",
          "type": "uint256"
        },
        {
          "indexed": true,
          "internalType": "address",
          "name": "seller",
          "type": "address"
        }
      ],
      "name": "AssetListed",
      "type": "event"
    },
    {
      "anonymous": false,
      "inputs": [
        {
          "indexed": true,
          "internalType": "uint256",
          "name": "tokenId",
          "type": "uint256"
        },
        {
          "indexed": true,
          "internalType": "address",
          "name": "creator",
          "type": "address"
        },
        {
          "indexed": false,
          "internalType": "string",
          "name": "tokenURI",
          "type": "string"
        }
      ],
      "name": "AssetMinted",
      "type": "event"
    },
    {
      "anonymous": false,
      "inputs": [
        {
          "indexed": true,
          "internalType": "uint256",
          "name": "tokenId",
          "type": "uint256"
        },
        {
          "indexed": false,
          "internalType": "uint256",
          "name": "price",
          "type": "uint256"
        },
        {
          "indexed": true,
          "internalType": "address",
          "name": "seller",
          "type": "address"
        },
        {
          "indexed": true,
          "internalType": "address",
          "name": "buyer",
          "type": "address"
        }
      ],
      "name": "AssetSold",
      "type": "event"
    },
    {
      "anonymous": false,
      "inputs": [
        {
          "indexed": false,
          "internalType": "uint256",
          "name": "_fromTokenId",
          "type": "uint256"
        },
        {
          "indexed": false,
          "internalType": "uint256",
          "name": "_toTokenId",
          "type": "uint256"
        }
      ],
      "name": "BatchMetadataUpdate",
      "type": "event"
    },
    {
      "anonymous": false,
      "inputs": [
        {
          "indexed": true,
          "internalType": "uint256",
          "name": "tokenId",
          "type": "uint256"
        }
      ],
      "name": "ListingCancelled",
      "type": "event"
    },
    {
      "anonymous": false,
      "inputs": [
        {
          "indexed": false,
          "internalType": "uint256",
          "name": "_tokenId",
          "type": "uint256"
        }
      ],
      "name": "MetadataUpdate",
      "type": "event"
    },
    {
      "anonymous": false,
      "inputs": [
        {
          "indexed": true,
          "internalType": "address",
          "name": "previousOwner",
          "type": "address"
        },
        {
          "indexed": true,
          "internalType": "address",
          "name": "newOwner",
          "type": "address"
        }
      ],
      "name": "OwnershipTransferred",
      "type": "event"
    },
    {
      "anonymous": false,
      "inputs": [
        {
          "indexed": true,
          "internalType": "address",
          "name": "from",
          "type": "address"
        },
        {
          "indexed": true,
          "internalType": "address",
          "name": "to",
          "type": "address"
        },
        {
          "indexed": true,
          "internalType": "uint256",
          "name": "tokenId",
          "type": "uint256"
        }
      ],
      "name": "Transfer",
      "type": "event"
    },
    {
      "inputs": [
        {
          "internalType": "address",
          "name": "to",
          "type": "address"
        },
        {
          "internalType": "uint256",
          "name": "tokenId",
          "type": "uint256"
        }
      ],
      "name": "approve",
      "outputs": [],
      "stateMutability": "nonpayable",
      "type": "function"
    },
    {
      "inputs": [
        {
          "internalType": "address",
          "name": "owner",
          "type": "address"
        }
      ],
      "name": "balanceOf",
      "outputs": [
        {
          "internalType": "uint256",
          "name": "",
          "type": "uint256"
        }
      ],
      "stateMutability": "view",
      "type": "function"
    },
    {
      "inputs": [
        {
          "internalType": "uint256",
          "name": "tokenId",
          "type": "uint256"
        }
      ],
      "name": "buyAsset",
      "outputs": [],
      "stateMutability": "payable",
      "type": "function"
    },
    {
      "inputs": [
        {
          "internalType": "uint256",
          "name": "tokenId",
          "type": "uint256"
        }
      ],
      "name": "cancelListing",
      "outputs": [],
      "stateMutability": "nonpayable",
      "type": "function"
    },
    {
      "inputs": [
        {
          "internalType": "uint256",
          "name": "",
          "type": "uint256"
        }
      ],
      "name": "creators",
      "outputs": [
        {
          "internalType": "address",
          "name": "",
          "type": "address"
        }
      ],
      "stateMutability": "view",
      "type": "function"
    },
    {
      "inputs": [
        {
          "internalType": "uint256",
          "name": "tokenId",
          "type": "uint256"
        }
      ],
      "name": "getApproved",
      "outputs": [
        {
          "internalType": "address",
          "name": "",
          "type": "address"
        }
      ],
      "stateMutability": "view",
      "type": "function"
    },
    {
      "inputs": [
        {
          "internalType": "uint256",
          "name": "tokenId",
          "type": "uint256"
        }
      ],
      "name": "getListing",
      "outputs": [
        {
          "internalType": "uint256",
          "name": "price",
          "type": "uint256"
        },
        {
          "internalType": "address",
          "name": "seller",
          "type": "address"
        }
      ],
      "stateMutability": "view",
      "type": "function"
    },
    {
      "inputs": [
        {
          "internalType": "address",
          "name": "owner",
          "type": "address"
        },
        {
          "internalType": "address",
          "name": "operator",
          "type": "address"
        }
      ],
      "name": "isApprovedForAll",
      "outputs": [
        {
          "internalType": "bool",
          "name": "",
          "type": "bool"
        }
      ],
      "stateMutability": "view",
      "type": "function"
    },
    {
      "inputs": [
        {
          "internalType": "uint256",
          "name": "tokenId",
          "type": "uint256"
        },
        {
          "internalType": "uint256",
          "name": "price",
          "type": "uint256"
        }
      ],
      "name": "listForSale",
      "outputs": [],
      "stateMutability": "nonpayable",
      "type": "function"
    },
    {
      "inputs": [
        {
          "internalType": "uint256",
          "name": "",
          "type": "uint256"
        }
      ],
      "name": "listings",
      "outputs": [
        {
          "internalType": "uint256",
          "name": "price",
          "type": "uint256"
        },
        {
          "internalType": "address",
          "name": "seller",
          "type": "address"
        }
      ],
      "stateMutability": "view",
      "type": "function"
    },
    {
      "inputs": [
        {
          "internalType": "address",
          "name": "to",
          "type": "address"
        },
        {
          "internalType": "string",
          "name": "uri",
          "type": "string"
        },
        {
          "internalType": "uint96",
          "name": "royaltyBps",
          "type": "uint96"
        }
      ],
      "name": "mintAsset",
      "outputs": [
        {
          "internalType": "uint256",
          "name": "",
          "type": "uint256"
        }
      ],
      "stateMutability": "nonpayable",
      "type": "function"
    },
    {
      "inputs": [],
      "name": "name",
      "outputs": [
        {
          "internalType": "string",
          "name": "",
          "type": "string"
        }
      ],
      "stateMutability": "view",
      "type": "function"
    },
    {
      "inputs": [],
      "name": "owner",
      "outputs": [
        {
          "internalType": "address",
          "name": "",
          "type": "address"
        }
      ],
      "stateMutability": "view",
      "type": "function"
    },
    {
      "inputs": [
        {
          "internalType": "uint256",
          "name": "tokenId",
          "type": "uint256"
        }
      ],
      "name": "ownerOf",
      "outputs": [
        {
          "internalType": "address",
          "name": "",
          "type": "address"
        }
      ],
      "stateMutability": "view",
      "type": "function"
    },
    {
      "inputs": [],
      "name": "renounceOwnership",
      "outputs": [],
      "stateMutability": "nonpayable",
      "type": "function"
    },
    {
      "inputs": [
        {
          "internalType": "uint256",
          "name": "tokenId",
          "type": "uint256"
        },
        {
          "internalType": "uint256",
          "name": "salePrice",
          "type": "uint256"
        }
      ],
      "name": "royaltyInfo",
      "outputs": [
        {
          "internalType": "address",
          "name": "receiver",
          "type": "address"
        },
        {
          "internalType": "uint256",
          "name": "amount",
          "type": "uint256"
        }
      ],
      "stateMutability": "view",
      "type": "function"
    },
    {
      "inputs": [
        {
          "internalType": "address",
          "name": "from",
          "type": "address"
        },
        {
          "internalType": "address",
          "name": "to",
          "type": "address"
        },
        {
          "internalType": "uint256",
          "name": "tokenId",
          "type": "uint256"
        }
      ],
      "name": "safeTransferFrom",
      "outputs": [],
      "stateMutability": "nonpayable",
      "type": "function"
    },
    {
      "inputs": [
        {
          "internalType": "address",
          "name": "from",
          "type": "address"
        },
        {
          "internalType": "address",
          "name": "to",
          "type": "address"
        },
        {
          "internalType": "uint256",
          "name": "tokenId",
          "type": "uint256"
        },
        {
          "internalType": "bytes",
          "name": "data",
          "type": "bytes"
        }
      ],
      "name": "safeTransferFrom",
      "outputs": [],
      "stateMutability": "nonpayable",
      "type": "function"
    },
    {
      "inputs": [
        {
          "internalType": "address",
          "name": "operator",
          "type": "address"
        },
        {
          "internalType": "bool",
          "name": "approved",
          "type": "bool"
        }
      ],
      "name": "setApprovalForAll",
      "outputs": [],
      "stateMutability": "nonpayable",
      "type": "function"
    },
    {
      "inputs": [
        {
          "internalType": "bytes4",
          "name": "interfaceId",
          "type": "bytes4"
        }
      ],
      "name": "supportsInterface",
      "outputs": [
        {
          "internalType": "bool",
          "name": "",
          "type": "bool"
        }
      ],
      "stateMutability": "view",
      "type": "function"
    },
    {
      "inputs": [],
      "name": "symbol",
      "outputs": [
        {
          "internalType": "string",
          "name": "",
          "type": "string"
        }
      ],
      "stateMutability": "view",
      "type": "function"
    },
    {
      "inputs": [
        {
          "internalType": "uint256",
          "name": "tokenId",
          "type": "uint256"
        }
      ],
      "name": "tokenURI",
      "outputs": [
        {
          "internalType": "string",
          "name": "",
          "type": "string"
        }
      ],
      "stateMutability": "view",
      "type": "function"
    },
    {
      "inputs": [],
      "name": "totalMinted",
      "outputs": [
        {
          "internalType": "uint256",
          "name": "",
          "type": "uint256"
        }
      ],
      "stateMutability": "view",
      "type": "function"
    },
    {
      "inputs": [
        {
          "internalType": "address",
          "name": "from",
          "type": "address"
        },
        {
          "internalType": "address",
          "name": "to",
          "type": "address"
        },
        {
          "internalType": "uint256",
          "name": "tokenId",
          "type": "uint256"
        }
      ],
      "name": "transferFrom",
      "outputs": [],
      "stateMutability": "nonpayable",
      "type": "function"
    },
    {
      "inputs": [
        {
          "internalType": "address",
          "name": "newOwner",
          "type": "address"
        }
      ],
      "name": "transferOwnership",
      "outputs": [],
      "stateMutability": "nonpayable",
      "type": "function"
    }
  ],
  "bytecode": "0x608060405234801561000f575f5ffd5b50336040518060400160405280600f81526020017f4469676974616c41737365744e465400000000000000000000000000000000008152506040518060400160405280600581526020017f44414e4654000000000000000000000000000000000000000000000000000000815250815f908161008b9190610423565b50806001908161009b9190610423565b5050505f73ffffffffffffffffffffffffffffffffffffffff168173ffffffffffffffffffffffffffffffffffffffff160361010e575f6040517f1e4fbdf70000000000000000000000000000000000000000000000000000000081526004016101059190610531565b60405180910390fd5b61011d8161012360201b60201c565b5061054a565b5f60095f9054906101000a900473ffffffffffffffffffffffffffffffffffffffff1690508160095f6101000a81548173ffffffffffffffffffffffffffffffffffffffff021916908373ffffffffffffffffffffffffffffffffffffffff1602179055508173ffffffffffffffffffffffffffffffffffffffff168173ffffffffffffffffffffffffffffffffffffffff167f8be0079c531659141344cd1fd0a4f28419497f9722a3daafe3b4186f6b6457e060405160405180910390a35050565b5f81519050919050565b7f4e487b71000000000000000000000000000000000000000000000000000000005f52604160045260245ffd5b7f4e487b71000000000000000000000000000000000000000000000000000000005f52602260045260245ffd5b5f600282049050600182168061026157607f821691505b6020821081036102745761027361021d565b5b50919050565b5f819050815f5260205f209050919050565b5f6020601f8301049050919050565b5f82821b905092915050565b5f600883026102d67fffffffffffffffffffffffffffffffffffffffffffffffffffffffffffffffff8261029b565b6102e0868361029b565b95508019841693508086168417925050509392505050565b5f819050919050565b5f819050919050565b5f61032461031f61031a846102f8565b610301565b6102f8565b9050919050565b5f819050919050565b61033d8361030a565b6103516103498261032b565b8484546102a7565b825550505050565b5f5f905090565b610368610359565b610373818484610334565b505050565b5b818110156103965761038b5f82610360565b600181019050610379565b5050565b601f8211156103db576103ac8161027a565b6103b58461028c565b810160208510156103c4578190505b6103d86103d08561028c565b830182610378565b50505b505050565b5f82821c905092915050565b5f6103fb5f19846008026103e0565b1980831691505092915050565b5f61041383836103ec565b9150826002028217905092915050565b61042c826101e6565b67ffffffffffffffff811115610445576104446101f0565b5b61044f825461024a565b61045a82828561039a565b5f60209050601f83116001811461048b575f8415610479578287015190505b6104838582610408565b8655506104ea565b601f1984166104998661027a565b5f5b828110156104c05784890151825560018201915060208501945060208101905061049b565b868310156104dd57848901516104d9601f8916826103ec565b8355505b6001600288020188555050505b505050505050565b5f73ffffffffffffffffffffffffffffffffffffffff82169050919050565b5f61051b826104f2565b9050919050565b61052b81610511565b82525050565b5f6020820190506105445f830184610522565b92915050565b613f74806105575f395ff3fe608060405260043610610165575f3560e01c8063715018a6116100d0578063c87b56dd11610089578063e80d7fec11610063578063e80d7fec14610552578063e985e9c51461057a578063f2fde38b146105b6578063f922dc59146105de57610165565b8063c87b56dd1461049d578063cd53d08e146104d9578063de74e57b1461051557610165565b8063715018a6146103b95780638da5cb5b146103cf57806395d89b41146103f9578063a22cb46514610423578063a2309ff81461044b578063b88d4fde1461047557610165565b806323b872dd1161012257806323b872dd1461028c5780632a55205a146102b4578063305a67a8146102f157806342842e0e146103195780636352211e1461034157806370a082311461037d57610165565b806301ffc9a71461016957806306fdde03146101a5578063081812fc146101cf578063095ea7b31461020b578063107a274a14610233578063110d35b814610270575b5f5ffd5b348015610174575f5ffd5b5061018f600480360381019061018a9190612d2a565b61061a565b60405161019c9190612d6f565b60405180910390f35b3480156101b0575f5ffd5b506101b961062b565b6040516101c69190612df8565b60405180910390f35b3480156101da575f5ffd5b506101f560048036038101906101f09190612e4b565b6106ba565b6040516102029190612eb5565b60405180910390f35b348015610216575f5ffd5b50610231600480360381019061022c9190612ef8565b6106d5565b005b34801561023e575f5ffd5b5061025960048036038101906102549190612e4b565b6106eb565b604051610267929190612f45565b60405180910390f35b61028a60048036038101906102859190612e4b565b61077d565b005b348015610297575f5ffd5b506102b260048036038101906102ad9190612f6c565b610c39565b005b3480156102bf575f5ffd5b506102da60048036038101906102d59190612fbc565b610d38565b6040516102e8929190612ffa565b60405180910390f35b3480156102fc575f5ffd5b5061031760048036038101906103129190612e4b565b610e5a565b005b348015610324575f5ffd5b5061033f600480360381019061033a9190612f6c565b610fff565b005b34801561034c575f5ffd5b5061036760048036038101906103629190612e4b565b61101e565b6040516103749190612eb5565b60405180910390f35b348015610388575f5ffd5b506103a3600480360381019061039e9190613021565b61102f565b6040516103b0919061304c565b60405180910390f35b3480156103c4575f5ffd5b506103cd6110e5565b005b3480156103da575f5ffd5b506103e36110f8565b6040516103f09190612eb5565b60405180910390f35b348015610404575f5ffd5b5061040d611120565b60405161041a9190612df8565b60405180910390f35b34801561042e575f5ffd5b506104496004803603810190610444919061308f565b6111b0565b005b348015610456575f5ffd5b5061045f6111c6565b60405161046c919061304c565b60405180910390f35b348015610480575f5ffd5b5061049b600480360381019061049691906131f9565b6111cf565b005b3480156104a8575f5ffd5b506104c360048036038101906104be9190612e4b565b6111f4565b6040516104d09190612df8565b60405180910390f35b3480156104e4575f5ffd5b506104ff60048036038101906104fa9190612e4b565b611270565b60405161050c9190612eb5565b60405180910390f35b348015610520575f5ffd5b5061053b60048036038101906105369190612e4b565b6112a0565b604051610549929190612f45565b60405180910390f35b34801561055d575f5ffd5b5061057860048036038101906105739190612fbc565b6112df565b005b348015610585575f5ffd5b506105a0600480360381019061059b9190613279565b6114fe565b6040516105ad9190612d6f565b60405180910390f35b3480156105c1575f5ffd5b506105dc60048036038101906105d79190613021565b61158c565b005b3480156105e9575f5ffd5b5061060460048036038101906105ff9190613355565b611610565b604051610611919061304c565b60405180910390f35b5f6106248261178f565b9050919050565b60605f8054610639906133f3565b80601f0160208091040260200160405190810160405280929190818152602001828054610665906133f3565b80156106b05780601f10610687576101008083540402835291602001916106b0565b820191905f5260205f20905b81548152906001019060200180831161069357829003601f168201915b5050505050905090565b5f6106c482611808565b506106ce8261188e565b9050919050565b6106e782826106e26118c7565b6118ce565b5050565b5f5f5f600b5f8581526020019081526020015f206040518060400160405290815f8201548152602001600182015f9054906101000a900473ffffffffffffffffffffffffffffffffffffffff1673ffffffffffffffffffffffffffffffffffffffff1673ffffffffffffffffffffffffffffffffffffffff16815250509050805f015181602001519250925050915091565b5f600b5f8381526020019081526020015f206040518060400160405290815f8201548152602001600182015f9054906101000a900473ffffffffffffffffffffffffffffffffffffffff1673ffffffffffffffffffffffffffffffffffffffff1673ffffffffffffffffffffffffffffffffffffffff168152505090505f815f01511161083f576040517f08c379a00000000000000000000000000000000000000000000000000000000081526004016108369061346d565b60405180910390fd5b805f0151341015610885576040517f08c379a000000000000000000000000000000000000000000000000000000000815260040161087c906134d5565b60405180910390fd5b3373ffffffffffffffffffffffffffffffffffffffff16816020015173ffffffffffffffffffffffffffffffffffffffff16036108f7576040517f08c379a00000000000000000000000000000000000000000000000000000000081526004016108ee9061353d565b60405180910390fd5b600b5f8381526020019081526020015f205f5f82015f9055600182015f6101000a81549073ffffffffffffffffffffffffffffffffffffffff021916905550505f5f61094684845f0151610d38565b915091505f81845f015161095a9190613588565b905061096b846020015133876118e0565b5f821180156109a657505f73ffffffffffffffffffffffffffffffffffffffff168373ffffffffffffffffffffffffffffffffffffffff1614155b15610a55575f8373ffffffffffffffffffffffffffffffffffffffff16836040516109d0906135e8565b5f6040518083038185875af1925050503d805f8114610a0a576040519150601f19603f3d011682016040523d82523d5f602084013e610a0f565b606091505b5050905080610a53576040517f08c379a0000000000000000000000000000000000000000000000000000000008152600401610a4a90613646565b60405180910390fd5b505b5f846020015173ffffffffffffffffffffffffffffffffffffffff1682604051610a7e906135e8565b5f6040518083038185875af1925050503d805f8114610ab8576040519150601f19603f3d011682016040523d82523d5f602084013e610abd565b606091505b5050905080610b01576040517f08c379a0000000000000000000000000000000000000000000000000000000008152600401610af8906136ae565b60405180910390fd5b845f0151341115610bc4575f3373ffffffffffffffffffffffffffffffffffffffff16865f015134610b339190613588565b604051610b3f906135e8565b5f6040518083038185875af1925050503d805f8114610b79576040519150601f19603f3d011682016040523d82523d5f602084013e610b7e565b606091505b5050905080610bc2576040517f08c379a0000000000000000000000000000000000000000000000000000000008152600401610bb990613716565b60405180910390fd5b505b3373ffffffffffffffffffffffffffffffffffffffff16856020015173ffffffffffffffffffffffffffffffffffffffff16877f823c7f6dc840ac7c6268cf6451045a0e53c8166e1a427c33c44ed9a093502d63885f0151604051610c29919061304c565b60405180910390a4505050505050565b5f73ffffffffffffffffffffffffffffffffffffffff168273ffffffffffffffffffffffffffffffffffffffff1603610ca9575f6040517f64a0ae92000000000000000000000000000000000000000000000000000000008152600401610ca09190612eb5565b60405180910390fd5b5f610cbc8383610cb76118c7565b611a48565b90508373ffffffffffffffffffffffffffffffffffffffff168173ffffffffffffffffffffffffffffffffffffffff1614610d32578382826040517f64283d7b000000000000000000000000000000000000000000000000000000008152600401610d2993929190613734565b60405180910390fd5b50505050565b5f5f5f60085f8681526020019081526020015f2090505f815f015f9054906101000a900473ffffffffffffffffffffffffffffffffffffffff1690505f825f0160149054906101000a90046bffffffffffffffffffffffff1690505f73ffffffffffffffffffffffffffffffffffffffff168273ffffffffffffffffffffffffffffffffffffffff1603610e0c5760075f015f9054906101000a900473ffffffffffffffffffffffffffffffffffffffff16915060075f0160149054906101000a90046bffffffffffffffffffffffff1690505b5f610e15611c53565b6bffffffffffffffffffffffff16826bffffffffffffffffffffffff1688610e3d9190613769565b610e4791906137d7565b9050828195509550505050509250929050565b5f600b5f8381526020019081526020015f206040518060400160405290815f8201548152602001600182015f9054906101000a900473ffffffffffffffffffffffffffffffffffffffff1673ffffffffffffffffffffffffffffffffffffffff1673ffffffffffffffffffffffffffffffffffffffff168152505090505f815f015111610f1c576040517f08c379a0000000000000000000000000000000000000000000000000000000008152600401610f1390613851565b60405180910390fd5b3373ffffffffffffffffffffffffffffffffffffffff16816020015173ffffffffffffffffffffffffffffffffffffffff1614610f8e576040517f08c379a0000000000000000000000000000000000000000000000000000000008152600401610f85906138b9565b60405180910390fd5b600b5f8381526020019081526020015f205f5f82015f9055600182015f6101000a81549073ffffffffffffffffffffffffffffffffffffffff02191690555050817f411aee90354c51b1b04cd563fcab2617142a9d50da19232d888547c8a1b7fd8a60405160405180910390a25050565b61101983838360405180602001604052805f8152506111cf565b505050565b5f61102882611808565b9050919050565b5f5f73ffffffffffffffffffffffffffffffffffffffff168273ffffffffffffffffffffffffffffffffffffffff16036110a0575f6040517f89c62b640000000000000000000000000000000000000000000000000000000081526004016110979190612eb5565b60405180910390fd5b60035f8373ffffffffffffffffffffffffffffffffffffffff1673ffffffffffffffffffffffffffffffffffffffff1681526020019081526020015f20549050919050565b6110ed611c5c565b6110f65f611ce3565b565b5f60095f9054906101000a900473ffffffffffffffffffffffffffffffffffffffff16905090565b60606001805461112f906133f3565b80601f016020809104026020016040519081016040528092919081815260200182805461115b906133f3565b80156111a65780601f1061117d576101008083540402835291602001916111a6565b820191905f5260205f20905b81548152906001019060200180831161118957829003601f168201915b5050505050905090565b6111c26111bb6118c7565b8383611da6565b5050565b5f600a54905090565b6111da848484610c39565b6111ee6111e56118c7565b85858585611f7f565b50505050565b60606111ff82611808565b505f61120961212b565b90505f61121584612141565b90505f82510361122957809250505061126b565b5f8151111561125d578181604051602001611245929190613911565b6040516020818303038152906040529250505061126b565b611266846121e2565b925050505b919050565b600c602052805f5260405f205f915054906101000a900473ffffffffffffffffffffffffffffffffffffffff1681565b600b602052805f5260405f205f91509050805f015490806001015f9054906101000a900473ffffffffffffffffffffffffffffffffffffffff16905082565b3373ffffffffffffffffffffffffffffffffffffffff166112ff8361101e565b73ffffffffffffffffffffffffffffffffffffffff1614611355576040517f08c379a000000000000000000000000000000000000000000000000000000000815260040161134c9061397e565b60405180910390fd5b5f8111611397576040517f08c379a000000000000000000000000000000000000000000000000000000000815260040161138e906139e6565b60405180910390fd5b3073ffffffffffffffffffffffffffffffffffffffff166113b7836106ba565b73ffffffffffffffffffffffffffffffffffffffff1614806113df57506113de33306114fe565b5b61141e576040517f08c379a000000000000000000000000000000000000000000000000000000000815260040161141590613a74565b60405180910390fd5b60405180604001604052808281526020013373ffffffffffffffffffffffffffffffffffffffff16815250600b5f8481526020019081526020015f205f820151815f01556020820151816001015f6101000a81548173ffffffffffffffffffffffffffffffffffffffff021916908373ffffffffffffffffffffffffffffffffffffffff1602179055509050503373ffffffffffffffffffffffffffffffffffffffff16827f0ff08935e25cd70e140279c6fb5e5895688b49d7302e027ccd018005fc02848d836040516114f2919061304c565b60405180910390a35050565b5f60055f8473ffffffffffffffffffffffffffffffffffffffff1673ffffffffffffffffffffffffffffffffffffffff1681526020019081526020015f205f8373ffffffffffffffffffffffffffffffffffffffff1673ffffffffffffffffffffffffffffffffffffffff1681526020019081526020015f205f9054906101000a900460ff16905092915050565b611594611c5c565b5f73ffffffffffffffffffffffffffffffffffffffff168173ffffffffffffffffffffffffffffffffffffffff1603611604575f6040517f1e4fbdf70000000000000000000000000000000000000000000000000000000081526004016115fb9190612eb5565b60405180910390fd5b61160d81611ce3565b50565b5f6103e8826bffffffffffffffffffffffff161115611664576040517f08c379a000000000000000000000000000000000000000000000000000000000815260040161165b90613adc565b60405180910390fd5b5f600a549050600a5f81548092919061167c90613afa565b919050555061168b8682612248565b6116d88186868080601f0160208091040260200160405190810160405280939291908181526020018383808284375f81840152601f19601f82011690508083019250505050505050612265565b6116e38133856122bf565b33600c5f8381526020019081526020015f205f6101000a81548173ffffffffffffffffffffffffffffffffffffffff021916908373ffffffffffffffffffffffffffffffffffffffff1602179055503373ffffffffffffffffffffffffffffffffffffffff16817fa30dd43fc057b356acd774161b6c8743df78c9bd58d7f492dd56d00121dda6b5878760405161177b929190613b6d565b60405180910390a380915050949350505050565b5f7f2a55205a000000000000000000000000000000000000000000000000000000007bffffffffffffffffffffffffffffffffffffffffffffffffffffffff1916827bffffffffffffffffffffffffffffffffffffffffffffffffffffffff1916148061180157506118008261246e565b5b9050919050565b5f5f611813836124ce565b90505f73ffffffffffffffffffffffffffffffffffffffff168173ffffffffffffffffffffffffffffffffffffffff160361188557826040517f7e27328900000000000000000000000000000000000000000000000000000000815260040161187c919061304c565b60405180910390fd5b80915050919050565b5f60045f8381526020019081526020015f205f9054906101000a900473ffffffffffffffffffffffffffffffffffffffff169050919050565b5f33905090565b6118db8383836001612507565b505050565b5f73ffffffffffffffffffffffffffffffffffffffff168273ffffffffffffffffffffffffffffffffffffffff1603611950575f6040517f64a0ae920000000000000000000000000000000000000000000000000000000081526004016119479190612eb5565b60405180910390fd5b5f61195c83835f611a48565b90505f73ffffffffffffffffffffffffffffffffffffffff168173ffffffffffffffffffffffffffffffffffffffff16036119ce57816040517f7e2732890000000000000000000000000000000000000000000000000000000081526004016119c5919061304c565b60405180910390fd5b8373ffffffffffffffffffffffffffffffffffffffff168173ffffffffffffffffffffffffffffffffffffffff1614611a42578382826040517f64283d7b000000000000000000000000000000000000000000000000000000008152600401611a3993929190613734565b60405180910390fd5b50505050565b5f5f611a53846124ce565b90505f73ffffffffffffffffffffffffffffffffffffffff168373ffffffffffffffffffffffffffffffffffffffff1614611a9457611a938184866126c6565b5b5f73ffffffffffffffffffffffffffffffffffffffff168173ffffffffffffffffffffffffffffffffffffffff1614611b1f57611ad35f855f5f612507565b600160035f8373ffffffffffffffffffffffffffffffffffffffff1673ffffffffffffffffffffffffffffffffffffffff1681526020019081526020015f205f82825403925050819055505b5f73ffffffffffffffffffffffffffffffffffffffff168573ffffffffffffffffffffffffffffffffffffffff1614611b9e57600160035f8773ffffffffffffffffffffffffffffffffffffffff1673ffffffffffffffffffffffffffffffffffffffff1681526020019081526020015f205f82825401925050819055505b8460025f8681526020019081526020015f205f6101000a81548173ffffffffffffffffffffffffffffffffffffffff021916908373ffffffffffffffffffffffffffffffffffffffff160217905550838573ffffffffffffffffffffffffffffffffffffffff168273ffffffffffffffffffffffffffffffffffffffff167fddf252ad1be2c89b69c2b068fc378daa952ba7f163c4a11628f55a4df523b3ef60405160405180910390a4809150509392505050565b5f612710905090565b611c646118c7565b73ffffffffffffffffffffffffffffffffffffffff16611c826110f8565b73ffffffffffffffffffffffffffffffffffffffff1614611ce157611ca56118c7565b6040517f118cdaa7000000000000000000000000000000000000000000000000000000008152600401611cd89190612eb5565b60405180910390fd5b565b5f60095f9054906101000a900473ffffffffffffffffffffffffffffffffffffffff1690508160095f6101000a81548173ffffffffffffffffffffffffffffffffffffffff021916908373ffffffffffffffffffffffffffffffffffffffff1602179055508173ffffffffffffffffffffffffffffffffffffffff168173ffffffffffffffffffffffffffffffffffffffff167f8be0079c531659141344cd1fd0a4f28419497f9722a3daafe3b4186f6b6457e060405160405180910390a35050565b5f73ffffffffffffffffffffffffffffffffffffffff168373ffffffffffffffffffffffffffffffffffffffff1603611e16575f6040517fa9fbf51f000000000000000000000000000000000000000000000000000000008152600401611e0d9190612eb5565b60405180910390fd5b5f73ffffffffffffffffffffffffffffffffffffffff168273ffffffffffffffffffffffffffffffffffffffff1603611e8657816040517f5b08ba18000000000000000000000000000000000000000000000000000000008152600401611e7d9190612eb5565b60405180910390fd5b8060055f8573ffffffffffffffffffffffffffffffffffffffff1673ffffffffffffffffffffffffffffffffffffffff1681526020019081526020015f205f8473ffffffffffffffffffffffffffffffffffffffff1673ffffffffffffffffffffffffffffffffffffffff1681526020019081526020015f205f6101000a81548160ff0219169083151502179055508173ffffffffffffffffffffffffffffffffffffffff168373ffffffffffffffffffffffffffffffffffffffff167f17307eab39ab6107e8899845ad3d59bd9653f200f220920489ca2b5937696c3183604051611f729190612d6f565b60405180910390a3505050565b5f8373ffffffffffffffffffffffffffffffffffffffff163b1115612124578273ffffffffffffffffffffffffffffffffffffffff1663150b7a02868685856040518563ffffffff1660e01b8152600401611fdd9493929190613be1565b6020604051808303815f875af192505050801561201857506040513d601f19601f820116820180604052508101906120159190613c3f565b60015b612099573d805f8114612046576040519150601f19603f3d011682016040523d82523d5f602084013e61204b565b606091505b505f81510361209157836040517f64a0ae920000000000000000000000000000000000000000000000000000000081526004016120889190612eb5565b60405180910390fd5b805160208201fd5b63150b7a0260e01b7bffffffffffffffffffffffffffffffffffffffffffffffffffffffff1916817bffffffffffffffffffffffffffffffffffffffffffffffffffffffff19161461212257836040517f64a0ae920000000000000000000000000000000000000000000000000000000081526004016121199190612eb5565b60405180910390fd5b505b5050505050565b606060405180602001604052805f815250905090565b606060065f8381526020019081526020015f20805461215f906133f3565b80601f016020809104026020016040519081016040528092919081815260200182805461218b906133f3565b80156121d65780601f106121ad576101008083540402835291602001916121d6565b820191905f5260205f20905b8154815290600101906020018083116121b957829003601f168201915b50505050509050919050565b60606121ed82611808565b505f6121f761212b565b90505f8151116122155760405180602001604052805f815250612240565b8061221f84612789565b604051602001612230929190613911565b6040516020818303038152906040525b915050919050565b612261828260405180602001604052805f815250612853565b5050565b8060065f8481526020019081526020015f2090816122839190613e0a565b507ff8e1a15aba9398e019f0b49df1a4fde98ee17ae345cb5f6b5e2c27f5033e8ce7826040516122b3919061304c565b60405180910390a15050565b5f6122c8611c53565b6bffffffffffffffffffffffff16905080826bffffffffffffffffffffffff16111561232f578382826040517fdfd1fc1b00000000000000000000000000000000000000000000000000000000815260040161232693929190613f09565b60405180910390fd5b5f73ffffffffffffffffffffffffffffffffffffffff168373ffffffffffffffffffffffffffffffffffffffff16036123a157835f6040517f969f0852000000000000000000000000000000000000000000000000000000008152600401612398929190612f45565b60405180910390fd5b60405180604001604052808473ffffffffffffffffffffffffffffffffffffffff168152602001836bffffffffffffffffffffffff1681525060085f8681526020019081526020015f205f820151815f015f6101000a81548173ffffffffffffffffffffffffffffffffffffffff021916908373ffffffffffffffffffffffffffffffffffffffff1602179055506020820151815f0160146101000a8154816bffffffffffffffffffffffff02191690836bffffffffffffffffffffffff16021790555090505050505050565b5f634906490660e01b7bffffffffffffffffffffffffffffffffffffffffffffffffffffffff1916827bffffffffffffffffffffffffffffffffffffffffffffffffffffffff191614806124c757506124c682612876565b5b9050919050565b5f60025f8381526020019081526020015f205f9054906101000a900473ffffffffffffffffffffffffffffffffffffffff169050919050565b808061253f57505f73ffffffffffffffffffffffffffffffffffffffff168273ffffffffffffffffffffffffffffffffffffffff1614155b15612671575f61254e84611808565b90505f73ffffffffffffffffffffffffffffffffffffffff168373ffffffffffffffffffffffffffffffffffffffff16141580156125b857508273ffffffffffffffffffffffffffffffffffffffff168173ffffffffffffffffffffffffffffffffffffffff1614155b80156125cb57506125c981846114fe565b155b1561260d57826040517fa9fbf51f0000000000000000000000000000000000000000000000000000000081526004016126049190612eb5565b60405180910390fd5b811561266f57838573ffffffffffffffffffffffffffffffffffffffff168273ffffffffffffffffffffffffffffffffffffffff167f8c5be1e5ebec7d5bd14f71427d1e84f3dd0314c0f7b2291e5b200ac8c7c3b92560405160405180910390a45b505b8360045f8581526020019081526020015f205f6101000a81548173ffffffffffffffffffffffffffffffffffffffff021916908373ffffffffffffffffffffffffffffffffffffffff16021790555050505050565b6126d1838383612957565b612784575f73ffffffffffffffffffffffffffffffffffffffff168373ffffffffffffffffffffffffffffffffffffffff160361274557806040517f7e27328900000000000000000000000000000000000000000000000000000000815260040161273c919061304c565b60405180910390fd5b81816040517f177e802f00000000000000000000000000000000000000000000000000000000815260040161277b929190612ffa565b60405180910390fd5b505050565b60605f600161279784612a17565b0190505f8167ffffffffffffffff8111156127b5576127b46130d5565b5b6040519080825280601f01601f1916602001820160405280156127e75781602001600182028036833780820191505090505b5090505f82602083010190505b600115612848578080600190039150507f3031323334353637383961626364656600000000000000000000000000000000600a86061a8153600a858161283d5761283c6137aa565b5b0494505f85036127f4575b819350505050919050565b61285d8383612b68565b6128716128686118c7565b5f858585611f7f565b505050565b5f7f80ac58cd000000000000000000000000000000000000000000000000000000007bffffffffffffffffffffffffffffffffffffffffffffffffffffffff1916827bffffffffffffffffffffffffffffffffffffffffffffffffffffffff1916148061294057507f5b5e139f000000000000000000000000000000000000000000000000000000007bffffffffffffffffffffffffffffffffffffffffffffffffffffffff1916827bffffffffffffffffffffffffffffffffffffffffffffffffffffffff1916145b80612950575061294f82612c5b565b5b9050919050565b5f5f73ffffffffffffffffffffffffffffffffffffffff168373ffffffffffffffffffffffffffffffffffffffff1614158015612a0e57508273ffffffffffffffffffffffffffffffffffffffff168473ffffffffffffffffffffffffffffffffffffffff1614806129cf57506129ce84846114fe565b5b80612a0d57508273ffffffffffffffffffffffffffffffffffffffff166129f58361188e565b73ffffffffffffffffffffffffffffffffffffffff16145b5b90509392505050565b5f5f5f90507a184f03e93ff9f4daa797ed6e38ed64bf6a1f0100000000000000008310612a73577a184f03e93ff9f4daa797ed6e38ed64bf6a1f0100000000000000008381612a6957612a686137aa565b5b0492506040810190505b6d04ee2d6d415b85acef81000000008310612ab0576d04ee2d6d415b85acef81000000008381612aa657612aa56137aa565b5b0492506020810190505b662386f26fc100008310612adf57662386f26fc100008381612ad557612ad46137aa565b5b0492506010810190505b6305f5e1008310612b08576305f5e1008381612afe57612afd6137aa565b5b0492506008810190505b6127108310612b2d576127108381612b2357612b226137aa565b5b0492506004810190505b60648310612b505760648381612b4657612b456137aa565b5b0492506002810190505b600a8310612b5f576001810190505b80915050919050565b5f73ffffffffffffffffffffffffffffffffffffffff168273ffffffffffffffffffffffffffffffffffffffff1603612bd8575f6040517f64a0ae92000000000000000000000000000000000000000000000000000000008152600401612bcf9190612eb5565b60405180910390fd5b5f612be483835f611a48565b90505f73ffffffffffffffffffffffffffffffffffffffff168173ffffffffffffffffffffffffffffffffffffffff1614612c56575f6040517f73c6ac6e000000000000000000000000000000000000000000000000000000008152600401612c4d9190612eb5565b60405180910390fd5b505050565b5f7f01ffc9a7000000000000000000000000000000000000000000000000000000007bffffffffffffffffffffffffffffffffffffffffffffffffffffffff1916827bffffffffffffffffffffffffffffffffffffffffffffffffffffffff1916149050919050565b5f604051905090565b5f5ffd5b5f5ffd5b5f7fffffffff0000000000000000000000000000000000000000000000000000000082169050919050565b612d0981612cd5565b8114612d13575f5ffd5b50565b5f81359050612d2481612d00565b92915050565b5f60208284031215612d3f57612d3e612ccd565b5b5f612d4c84828501612d16565b91505092915050565b5f8115159050919050565b612d6981612d55565b82525050565b5f602082019050612d825f830184612d60565b92915050565b5f81519050919050565b5f82825260208201905092915050565b8281835e5f83830152505050565b5f601f19601f8301169050919050565b5f612dca82612d88565b612dd48185612d92565b9350612de4818560208601612da2565b612ded81612db0565b840191505092915050565b5f6020820190508181035f830152612e108184612dc0565b905092915050565b5f819050919050565b612e2a81612e18565b8114612e34575f5ffd5b50565b5f81359050612e4581612e21565b92915050565b5f60208284031215612e6057612e5f612ccd565b5b5f612e6d84828501612e37565b91505092915050565b5f73ffffffffffffffffffffffffffffffffffffffff82169050919050565b5f612e9f82612e76565b9050919050565b612eaf81612e95565b82525050565b5f602082019050612ec85f830184612ea6565b92915050565b612ed781612e95565b8114612ee1575f5ffd5b50565b5f81359050612ef281612ece565b92915050565b5f5f60408385031215612f0e57612f0d612ccd565b5b5f612f1b85828601612ee4565b9250506020612f2c85828601612e37565b9150509250929050565b612f3f81612e18565b82525050565b5f604082019050612f585f830185612f36565b612f656020830184612ea6565b9392505050565b5f5f5f60608486031215612f8357612f82612ccd565b5b5f612f9086828701612ee4565b9350506020612fa186828701612ee4565b9250506040612fb286828701612e37565b9150509250925092565b5f5f60408385031215612fd257612fd1612ccd565b5b5f612fdf85828601612e37565b9250506020612ff085828601612e37565b9150509250929050565b5f60408201905061300d5f830185612ea6565b61301a6020830184612f36565b9392505050565b5f6020828403121561303657613035612ccd565b5b5f61304384828501612ee4565b91505092915050565b5f60208201905061305f5f830184612f36565b92915050565b61306e81612d55565b8114613078575f5ffd5b50565b5f8135905061308981613065565b92915050565b5f5f604083850312156130a5576130a4612ccd565b5b5f6130b285828601612ee4565b92505060206130c38582860161307b565b9150509250929050565b5f5ffd5b5f5ffd5b7f4e487b71000000000000000000000000000000000000000000000000000000005f52604160045260245ffd5b61310b82612db0565b810181811067ffffffffffffffff8211171561312a576131296130d5565b5b80604052505050565b5f61313c612cc4565b90506131488282613102565b919050565b5f67ffffffffffffffff821115613167576131666130d5565b5b61317082612db0565b9050602081019050919050565b828183375f83830152505050565b5f61319d6131988461314d565b613133565b9050828152602081018484840111156131b9576131b86130d1565b5b6131c484828561317d565b509392505050565b5f82601f8301126131e0576131df6130cd565b5b81356131f084826020860161318b565b91505092915050565b5f5f5f5f6080858703121561321157613210612ccd565b5b5f61321e87828801612ee4565b945050602061322f87828801612ee4565b935050604061324087828801612e37565b925050606085013567ffffffffffffffff81111561326157613260612cd1565b5b61326d878288016131cc565b91505092959194509250565b5f5f6040838503121561328f5761328e612ccd565b5b5f61329c85828601612ee4565b92505060206132ad85828601612ee4565b9150509250929050565b5f5ffd5b5f5ffd5b5f5f83601f8401126132d4576132d36130cd565b5b8235905067ffffffffffffffff8111156132f1576132f06132b7565b5b60208301915083600182028301111561330d5761330c6132bb565b5b9250929050565b5f6bffffffffffffffffffffffff82169050919050565b61333481613314565b811461333e575f5ffd5b50565b5f8135905061334f8161332b565b92915050565b5f5f5f5f6060858703121561336d5761336c612ccd565b5b5f61337a87828801612ee4565b945050602085013567ffffffffffffffff81111561339b5761339a612cd1565b5b6133a7878288016132bf565b935093505060406133ba87828801613341565b91505092959194509250565b7f4e487b71000000000000000000000000000000000000000000000000000000005f52602260045260245ffd5b5f600282049050600182168061340a57607f821691505b60208210810361341d5761341c6133c6565b5b50919050565b7f4e6f74206c697374656420666f722073616c65000000000000000000000000005f82015250565b5f613457601383612d92565b915061346282613423565b602082019050919050565b5f6020820190508181035f8301526134848161344b565b9050919050565b7f496e73756666696369656e74207061796d656e740000000000000000000000005f82015250565b5f6134bf601483612d92565b91506134ca8261348b565b602082019050919050565b5f6020820190508181035f8301526134ec816134b3565b9050919050565b7f43616e6e6f7420627579206f776e2061737365740000000000000000000000005f82015250565b5f613527601483612d92565b9150613532826134f3565b602082019050919050565b5f6020820190508181035f8301526135548161351b565b9050919050565b7f4e487b71000000000000000000000000000000000000000000000000000000005f52601160045260245ffd5b5f61359282612e18565b915061359d83612e18565b92508282039050818111156135b5576135b461355b565b5b92915050565b5f81905092915050565b50565b5f6135d35f836135bb565b91506135de826135c5565b5f82019050919050565b5f6135f2826135c8565b9150819050919050565b7f526f79616c7479207061796d656e74206661696c6564000000000000000000005f82015250565b5f613630601683612d92565b915061363b826135fc565b602082019050919050565b5f6020820190508181035f83015261365d81613624565b9050919050565b7f53656c6c6572207061796d656e74206661696c656400000000000000000000005f82015250565b5f613698601583612d92565b91506136a382613664565b602082019050919050565b5f6020820190508181035f8301526136c58161368c565b9050919050565b7f526566756e64206661696c6564000000000000000000000000000000000000005f82015250565b5f613700600d83612d92565b915061370b826136cc565b602082019050919050565b5f6020820190508181035f83015261372d816136f4565b9050919050565b5f6060820190506137475f830186612ea6565b6137546020830185612f36565b6137616040830184612ea6565b949350505050565b5f61377382612e18565b915061377e83612e18565b925082820261378c81612e18565b915082820484148315176137a3576137a261355b565b5b5092915050565b7f4e487b71000000000000000000000000000000000000000000000000000000005f52601260045260245ffd5b5f6137e182612e18565b91506137ec83612e18565b9250826137fc576137fb6137aa565b5b828204905092915050565b7f4e6f74206c6973746564000000000000000000000000000000000000000000005f82015250565b5f61383b600a83612d92565b915061384682613807565b602082019050919050565b5f6020820190508181035f8301526138688161382f565b9050919050565b7f4e6f74207468652073656c6c65720000000000000000000000000000000000005f82015250565b5f6138a3600e83612d92565b91506138ae8261386f565b602082019050919050565b5f6020820190508181035f8301526138d081613897565b9050919050565b5f81905092915050565b5f6138eb82612d88565b6138f581856138d7565b9350613905818560208601612da2565b80840191505092915050565b5f61391c82856138e1565b915061392882846138e1565b91508190509392505050565b7f4e6f7420746865206f776e6572000000000000000000000000000000000000005f82015250565b5f613968600d83612d92565b915061397382613934565b602082019050919050565b5f6020820190508181035f8301526139958161395c565b9050919050565b7f5072696365206d7573742062652067726561746572207468616e2030000000005f82015250565b5f6139d0601c83612d92565b91506139db8261399c565b602082019050919050565b5f6020820190508181035f8301526139fd816139c4565b9050919050565b7f436f6e7472616374206e6f7420617070726f76656420666f72207472616e73665f8201527f6572000000000000000000000000000000000000000000000000000000000000602082015250565b5f613a5e602283612d92565b9150613a6982613a04565b604082019050919050565b5f6020820190508181035f830152613a8b81613a52565b9050919050565b7f526f79616c747920746f6f206869676820286d617820313025290000000000005f82015250565b5f613ac6601a83612d92565b9150613ad182613a92565b602082019050919050565b5f6020820190508181035f830152613af381613aba565b9050919050565b5f613b0482612e18565b91507fffffffffffffffffffffffffffffffffffffffffffffffffffffffffffffffff8203613b3657613b3561355b565b5b600182019050919050565b5f613b4c8385612d92565b9350613b5983858461317d565b613b6283612db0565b840190509392505050565b5f6020820190508181035f830152613b86818486613b41565b90509392505050565b5f81519050919050565b5f82825260208201905092915050565b5f613bb382613b8f565b613bbd8185613b99565b9350613bcd818560208601612da2565b613bd681612db0565b840191505092915050565b5f608082019050613bf45f830187612ea6565b613c016020830186612ea6565b613c0e6040830185612f36565b8181036060830152613c208184613ba9565b905095945050505050565b5f81519050613c3981612d00565b92915050565b5f60208284031215613c5457613c53612ccd565b5b5f613c6184828501613c2b565b91505092915050565b5f819050815f5260205f209050919050565b5f6020601f8301049050919050565b5f82821b905092915050565b5f60088302613cc67fffffffffffffffffffffffffffffffffffffffffffffffffffffffffffffffff82613c8b565b613cd08683613c8b565b95508019841693508086168417925050509392505050565b5f819050919050565b5f613d0b613d06613d0184612e18565b613ce8565b612e18565b9050919050565b5f819050919050565b613d2483613cf1565b613d38613d3082613d12565b848454613c97565b825550505050565b5f5f905090565b613d4f613d40565b613d5a818484613d1b565b505050565b5b81811015613d7d57613d725f82613d47565b600181019050613d60565b5050565b601f821115613dc257613d9381613c6a565b613d9c84613c7c565b81016020851015613dab578190505b613dbf613db785613c7c565b830182613d5f565b50505b505050565b5f82821c905092915050565b5f613de25f1984600802613dc7565b1980831691505092915050565b5f613dfa8383613dd3565b9150826002028217905092915050565b613e1382612d88565b67ffffffffffffffff811115613e2c57613e2b6130d5565b5b613e3682546133f3565b613e41828285613d81565b5f60209050601f831160018114613e72575f8415613e60578287015190505b613e6a8582613def565b865550613ed1565b601f198416613e8086613c6a565b5f5b82811015613ea757848901518255600182019150602085019450602081019050613e82565b86831015613ec45784890151613ec0601f891682613dd3565b8355505b6001600288020188555050505b505050505050565b5f613ef3613eee613ee984613314565b613ce8565b612e18565b9050919050565b613f0381613ed9565b82525050565b5f606082019050613f1c5f830186612f36565b613f296020830185613efa565b613f366040830184612f36565b94935050505056fea2646970667358221220b14eaa6976e983cb998fe00b534cb236029d8e9d8bd863ab7e05e6582064e34f64736f6c634300081c0033",
  "linkReferences": {},
  "deployedLinkReferences": {},
  "immutableReferences": {},
  "inputSourceName": "project/contracts/DigitalAssetNFT.sol",
  "buildInfoId": "solc-0_8_28-f5821388cf76c17a0aff45ebad6d6e7506919a82"
}